{
    "_format": "hh-sol-artifact-1",
    "contractName": "Trees",
    "sourceName": "contracts/Trees.sol",
    "abi": [
        {
            "inputs": [
                {
                    "internalType": "address",
                    "name": "_withdrawalAddress",
                    "type": "address"
                },
                {
                    "internalType": "uint256",
                    "name": "_batchSize",
                    "type": "uint256"
                }
            ],
            "stateMutability": "nonpayable",
            "type": "constructor"
        },
        {
            "inputs": [],
            "name": "ApprovalCallerNotOwnerNorApproved",
            "type": "error"
        },
        {
            "inputs": [],
            "name": "ApprovalQueryForNonexistentToken",
            "type": "error"
        },
        {
            "inputs": [],
            "name": "ApprovalToCurrentOwner",
            "type": "error"
        },
        {
            "inputs": [],
            "name": "ApproveToCaller",
            "type": "error"
        },
        {
            "inputs": [],
            "name": "BalanceQueryForZeroAddress",
            "type": "error"
        },
        {
            "inputs": [],
            "name": "MintToZeroAddress",
            "type": "error"
        },
        {
            "inputs": [],
            "name": "MintZeroQuantity",
            "type": "error"
        },
        {
            "inputs": [],
            "name": "OwnerQueryForNonexistentToken",
            "type": "error"
        },
        {
            "inputs": [],
            "name": "TransferCallerNotOwnerNorApproved",
            "type": "error"
        },
        {
            "inputs": [],
            "name": "TransferFromIncorrectOwner",
            "type": "error"
        },
        {
            "inputs": [],
            "name": "TransferToNonERC721ReceiverImplementer",
            "type": "error"
        },
        {
            "inputs": [],
            "name": "TransferToZeroAddress",
            "type": "error"
        },
        {
            "inputs": [],
            "name": "URIQueryForNonexistentToken",
            "type": "error"
        },
        {
            "anonymous": false,
            "inputs": [
                {
                    "indexed": true,
                    "internalType": "address",
                    "name": "owner",
                    "type": "address"
                },
                {
                    "indexed": true,
                    "internalType": "address",
                    "name": "approved",
                    "type": "address"
                },
                {
                    "indexed": true,
                    "internalType": "uint256",
                    "name": "tokenId",
                    "type": "uint256"
                }
            ],
            "name": "Approval",
            "type": "event"
        },
        {
            "anonymous": false,
            "inputs": [
                {
                    "indexed": true,
                    "internalType": "address",
                    "name": "owner",
                    "type": "address"
                },
                {
                    "indexed": true,
                    "internalType": "address",
                    "name": "operator",
                    "type": "address"
                },
                {
                    "indexed": false,
                    "internalType": "bool",
                    "name": "approved",
                    "type": "bool"
                }
            ],
            "name": "ApprovalForAll",
            "type": "event"
        },
        {
            "anonymous": false,
            "inputs": [
                {
                    "indexed": true,
                    "internalType": "address",
                    "name": "previousOwner",
                    "type": "address"
                },
                {
                    "indexed": true,
                    "internalType": "address",
                    "name": "newOwner",
                    "type": "address"
                }
            ],
            "name": "OwnershipTransferred",
            "type": "event"
        },
        {
            "anonymous": false,
            "inputs": [
                {
                    "indexed": true,
                    "internalType": "address",
                    "name": "from",
                    "type": "address"
                },
                {
                    "indexed": true,
                    "internalType": "address",
                    "name": "to",
                    "type": "address"
                },
                {
                    "indexed": true,
                    "internalType": "uint256",
                    "name": "tokenId",
                    "type": "uint256"
                }
            ],
            "name": "Transfer",
            "type": "event"
        },
        {
            "inputs": [
                {
                    "internalType": "address",
                    "name": "_user",
                    "type": "address"
                },
                {
                    "internalType": "uint256",
                    "name": "_quantity",
                    "type": "uint256"
                }
            ],
            "name": "airdrop",
            "outputs": [],
            "stateMutability": "nonpayable",
            "type": "function"
        },
        {
            "inputs": [
                {
                    "internalType": "address[]",
                    "name": "users",
                    "type": "address[]"
                },
                {
                    "internalType": "uint256",
                    "name": "quantity",
                    "type": "uint256"
                }
            ],
            "name": "airdropBatch",
            "outputs": [],
            "stateMutability": "nonpayable",
            "type": "function"
        },
        {
            "inputs": [
                {
                    "internalType": "address",
                    "name": "to",
                    "type": "address"
                },
                {
                    "internalType": "uint256",
                    "name": "tokenId",
                    "type": "uint256"
                }
            ],
            "name": "approve",
            "outputs": [],
            "stateMutability": "nonpayable",
            "type": "function"
        },
        {
            "inputs": [
                {
                    "internalType": "address",
                    "name": "owner",
                    "type": "address"
                }
            ],
            "name": "balanceOf",
            "outputs": [
                {
                    "internalType": "uint256",
                    "name": "",
                    "type": "uint256"
                }
            ],
            "stateMutability": "view",
            "type": "function"
        },
        {
            "inputs": [],
            "name": "baseURI",
            "outputs": [
                {
                    "internalType": "string",
                    "name": "",
                    "type": "string"
                }
            ],
            "stateMutability": "view",
            "type": "function"
        },
        {
            "inputs": [],
            "name": "batchLimit",
            "outputs": [
                {
                    "internalType": "uint256",
                    "name": "",
                    "type": "uint256"
                }
            ],
            "stateMutability": "view",
            "type": "function"
        },
        {
            "inputs": [
                {
                    "internalType": "uint256",
                    "name": "tokenId",
                    "type": "uint256"
                }
            ],
            "name": "getApproved",
            "outputs": [
                {
                    "internalType": "address",
                    "name": "",
                    "type": "address"
                }
            ],
            "stateMutability": "view",
            "type": "function"
        },
        {
            "inputs": [],
            "name": "isActive",
            "outputs": [
                {
                    "internalType": "bool",
                    "name": "",
                    "type": "bool"
                }
            ],
            "stateMutability": "view",
            "type": "function"
        },
        {
            "inputs": [
                {
                    "internalType": "address",
                    "name": "owner",
                    "type": "address"
                },
                {
                    "internalType": "address",
                    "name": "operator",
                    "type": "address"
                }
            ],
            "name": "isApprovedForAll",
            "outputs": [
                {
                    "internalType": "bool",
                    "name": "",
                    "type": "bool"
                }
            ],
            "stateMutability": "view",
            "type": "function"
        },
        {
            "inputs": [
                {
                    "internalType": "address",
                    "name": "_user",
                    "type": "address"
                }
            ],
            "name": "isTeam",
            "outputs": [
                {
                    "internalType": "bool",
                    "name": "",
                    "type": "bool"
                }
            ],
            "stateMutability": "view",
            "type": "function"
        },
        {
            "inputs": [],
            "name": "maxMint",
            "outputs": [
                {
                    "internalType": "uint256",
                    "name": "",
                    "type": "uint256"
                }
            ],
            "stateMutability": "view",
            "type": "function"
        },
        {
            "inputs": [],
            "name": "maxSupply",
            "outputs": [
                {
                    "internalType": "uint256",
                    "name": "",
                    "type": "uint256"
                }
            ],
            "stateMutability": "view",
            "type": "function"
        },
        {
            "inputs": [
                {
                    "internalType": "uint256",
                    "name": "quantity",
                    "type": "uint256"
                }
            ],
            "name": "mint",
            "outputs": [],
            "stateMutability": "payable",
            "type": "function"
        },
        {
            "inputs": [],
            "name": "name",
            "outputs": [
                {
                    "internalType": "string",
                    "name": "",
                    "type": "string"
                }
            ],
            "stateMutability": "view",
            "type": "function"
        },
        {
            "inputs": [],
            "name": "owner",
            "outputs": [
                {
                    "internalType": "address",
                    "name": "",
                    "type": "address"
                }
            ],
            "stateMutability": "view",
            "type": "function"
        },
        {
            "inputs": [
                {
                    "internalType": "uint256",
                    "name": "tokenId",
                    "type": "uint256"
                }
            ],
            "name": "ownerOf",
            "outputs": [
                {
                    "internalType": "address",
                    "name": "",
                    "type": "address"
                }
            ],
            "stateMutability": "view",
            "type": "function"
        },
        {
            "inputs": [],
            "name": "price",
            "outputs": [
                {
                    "internalType": "uint256",
                    "name": "",
                    "type": "uint256"
                }
            ],
            "stateMutability": "view",
            "type": "function"
        },
        {
            "inputs": [
                {
                    "internalType": "contract IERC20",
                    "name": "_token",
                    "type": "address"
                }
            ],
            "name": "recoverToken",
            "outputs": [],
            "stateMutability": "nonpayable",
            "type": "function"
        },
        {
            "inputs": [],
            "name": "renounceOwnership",
            "outputs": [],
            "stateMutability": "nonpayable",
            "type": "function"
        },
        {
            "inputs": [
                {
                    "internalType": "address",
                    "name": "from",
                    "type": "address"
                },
                {
                    "internalType": "address",
                    "name": "to",
                    "type": "address"
                },
                {
                    "internalType": "uint256",
                    "name": "tokenId",
                    "type": "uint256"
                }
            ],
            "name": "safeTransferFrom",
            "outputs": [],
            "stateMutability": "nonpayable",
            "type": "function"
        },
        {
            "inputs": [
                {
                    "internalType": "address",
                    "name": "from",
                    "type": "address"
                },
                {
                    "internalType": "address",
                    "name": "to",
                    "type": "address"
                },
                {
                    "internalType": "uint256",
                    "name": "tokenId",
                    "type": "uint256"
                },
                {
                    "internalType": "bytes",
                    "name": "_data",
                    "type": "bytes"
                }
            ],
            "name": "safeTransferFrom",
            "outputs": [],
            "stateMutability": "nonpayable",
            "type": "function"
        },
        {
            "inputs": [
                {
                    "internalType": "address",
                    "name": "operator",
                    "type": "address"
                },
                {
                    "internalType": "bool",
                    "name": "approved",
                    "type": "bool"
                }
            ],
            "name": "setApprovalForAll",
            "outputs": [],
            "stateMutability": "nonpayable",
            "type": "function"
        },
        {
            "inputs": [
                {
                    "internalType": "string",
                    "name": "_baseURI",
                    "type": "string"
                }
            ],
            "name": "setBaseURI",
            "outputs": [],
            "stateMutability": "nonpayable",
            "type": "function"
        },
        {
            "inputs": [
                {
                    "internalType": "uint256",
                    "name": "_amount",
                    "type": "uint256"
                }
            ],
            "name": "setBatchLimit",
            "outputs": [],
            "stateMutability": "nonpayable",
            "type": "function"
        },
        {
            "inputs": [
                {
                    "internalType": "uint256",
                    "name": "_amount",
                    "type": "uint256"
                }
            ],
            "name": "setMaxMint",
            "outputs": [],
            "stateMutability": "nonpayable",
            "type": "function"
        },
        {
            "inputs": [
                {
                    "internalType": "uint256",
                    "name": "_amount",
                    "type": "uint256"
                }
            ],
            "name": "setMaxSupply",
            "outputs": [],
            "stateMutability": "nonpayable",
            "type": "function"
        },
        {
            "inputs": [
                {
                    "internalType": "uint256",
                    "name": "_price",
                    "type": "uint256"
                }
            ],
            "name": "setPrice",
            "outputs": [],
            "stateMutability": "nonpayable",
            "type": "function"
        },
        {
            "inputs": [
                {
                    "internalType": "address",
                    "name": "_user",
                    "type": "address"
                },
                {
                    "internalType": "bool",
                    "name": "_state",
                    "type": "bool"
                }
            ],
            "name": "setTeam",
            "outputs": [],
            "stateMutability": "nonpayable",
            "type": "function"
        },
        {
            "inputs": [
                {
                    "internalType": "address",
                    "name": "_withdrawal",
                    "type": "address"
                }
            ],
            "name": "setWithdrawalAddress",
            "outputs": [],
            "stateMutability": "nonpayable",
            "type": "function"
        },
        {
            "inputs": [
                {
                    "internalType": "bytes4",
                    "name": "interfaceId",
                    "type": "bytes4"
                }
            ],
            "name": "supportsInterface",
            "outputs": [
                {
                    "internalType": "bool",
                    "name": "",
                    "type": "bool"
                }
            ],
            "stateMutability": "view",
            "type": "function"
        },
        {
            "inputs": [],
            "name": "symbol",
            "outputs": [
                {
                    "internalType": "string",
                    "name": "",
                    "type": "string"
                }
            ],
            "stateMutability": "view",
            "type": "function"
        },
        {
            "inputs": [],
            "name": "toggleSale",
            "outputs": [],
            "stateMutability": "nonpayable",
            "type": "function"
        },
        {
            "inputs": [
                {
                    "internalType": "uint256",
                    "name": "tokenId",
                    "type": "uint256"
                }
            ],
            "name": "tokenURI",
            "outputs": [
                {
                    "internalType": "string",
                    "name": "",
                    "type": "string"
                }
            ],
            "stateMutability": "view",
            "type": "function"
        },
        {
            "inputs": [],
            "name": "totalSupply",
            "outputs": [
                {
                    "internalType": "uint256",
                    "name": "",
                    "type": "uint256"
                }
            ],
            "stateMutability": "view",
            "type": "function"
        },
        {
            "inputs": [
                {
                    "internalType": "address",
                    "name": "from",
                    "type": "address"
                },
                {
                    "internalType": "address",
                    "name": "to",
                    "type": "address"
                },
                {
                    "internalType": "uint256",
                    "name": "tokenId",
                    "type": "uint256"
                }
            ],
            "name": "transferFrom",
            "outputs": [],
            "stateMutability": "nonpayable",
            "type": "function"
        },
        {
            "inputs": [
                {
                    "internalType": "address",
                    "name": "newOwner",
                    "type": "address"
                }
            ],
            "name": "transferOwnership",
            "outputs": [],
            "stateMutability": "nonpayable",
            "type": "function"
        },
        {
            "inputs": [],
            "name": "withdraw",
            "outputs": [],
            "stateMutability": "nonpayable",
            "type": "function"
        },
        {
            "inputs": [],
            "name": "withdrawalAddress",
            "outputs": [
                {
                    "internalType": "address",
                    "name": "",
                    "type": "address"
                }
            ],
            "stateMutability": "view",
            "type": "function"
        }
    ],
    "bytecode": "0x6080604052612710600b55600a600c556005600d5566038d7ea4c68000600e553480156200002c57600080fd5b5060405162003157380380620031578339810160408190526200004f91620001f8565b604080518082018252600580825264547265657360d81b6020808401828152855180870190965292855284015281519192916200008f9160029162000152565b508051620000a590600390602084019062000152565b50506000805550620000b73362000100565b5060016009819055601080546001600160a01b0319166001600160a01b039390931692909217909155336000908152601260205260409020805460ff1916909117905562000271565b600880546001600160a01b038381166001600160a01b0319831681179093556040519116919082907f8be0079c531659141344cd1fd0a4f28419497f9722a3daafe3b4186f6b6457e090600090a35050565b828054620001609062000234565b90600052602060002090601f016020900481019282620001845760008555620001cf565b82601f106200019f57805160ff1916838001178555620001cf565b82800160010185558215620001cf579182015b82811115620001cf578251825591602001919060010190620001b2565b50620001dd929150620001e1565b5090565b5b80821115620001dd5760008155600101620001e2565b600080604083850312156200020c57600080fd5b82516001600160a01b03811681146200022457600080fd5b6020939093015192949293505050565b600181811c908216806200024957607f821691505b602082108114156200026b57634e487b7160e01b600052602260045260246000fd5b50919050565b612ed680620002816000396000f3fe6080604052600436106102855760003560e01c806370a0823111610153578063a035b1fe116100cb578063d5abeb011161007f578063f2600b5611610064578063f2600b56146106d3578063f2bcd022146106f3578063f2fde38b1461071357600080fd5b8063d5abeb0114610674578063e985e9c51461068a57600080fd5b8063a22cb465116100b0578063a22cb46514610614578063b88d4fde14610634578063c87b56dd1461065457600080fd5b8063a035b1fe146105eb578063a0712d681461060157600080fd5b80638ba4cc3c1161012257806391b7f5ed1161010757806391b7f5ed1461059657806395d89b41146105b65780639be65a60146105cb57600080fd5b80638ba4cc3c146105585780638da5cb5b1461057857600080fd5b806370a08231146104f8578063715018a6146105185780637501f7411461052d5780637d8966e41461054357600080fd5b8063248519141161020157806355f804b3116101b5578063671c3e4f1161019a578063671c3e4f146104a35780636c0360eb146104c35780636f8b44b0146104d857600080fd5b806355f804b3146104635780636352211e1461048357600080fd5b806342842e0e116101e657806342842e0e1461040d578063474740b11461042d578063547520fe1461044357600080fd5b806324851914146103d85780633ccfd60b146103f857600080fd5b8063095ea7b31161025857806321b8092e1161023d57806321b8092e1461037e57806322f3e2d41461039e57806323b872dd146103b857600080fd5b8063095ea7b31461033b57806318160ddd1461035b57600080fd5b806301ffc9a71461028a57806306fdde03146102bf578063081812fc146102e1578063092545ce14610319575b600080fd5b34801561029657600080fd5b506102aa6102a53660046129d2565b610733565b60405190151581526020015b60405180910390f35b3480156102cb57600080fd5b506102d4610818565b6040516102b69190612c33565b3480156102ed57600080fd5b506103016102fc366004612a55565b6108aa565b6040516001600160a01b0390911681526020016102b6565b34801561032557600080fd5b506103396103343660046128e0565b610907565b005b34801561034757600080fd5b5061033961035636600461290e565b610a1e565b34801561036757600080fd5b50600154600054035b6040519081526020016102b6565b34801561038a57600080fd5b506103396103993660046127c2565b610ad7565b3480156103aa57600080fd5b50600a546102aa9060ff1681565b3480156103c457600080fd5b506103396103d336600461281f565b610b6b565b3480156103e457600080fd5b506102aa6103f33660046127c2565b610b76565b34801561040457600080fd5b50610339610bf2565b34801561041957600080fd5b5061033961042836600461281f565b610caf565b34801561043957600080fd5b50610370600d5481565b34801561044f57600080fd5b5061033961045e366004612a55565b610cca565b34801561046f57600080fd5b5061033961047e366004612a0c565b610d79565b34801561048f57600080fd5b5061030161049e366004612a55565b610dea565b3480156104af57600080fd5b506103396104be36600461293a565b610dfc565b3480156104cf57600080fd5b506102d4610f71565b3480156104e457600080fd5b506103396104f3366004612a55565b610fff565b34801561050457600080fd5b506103706105133660046127c2565b6110b4565b34801561052457600080fd5b5061033961111c565b34801561053957600080fd5b50610370600c5481565b34801561054f57600080fd5b50610339611182565b34801561056457600080fd5b5061033961057336600461290e565b61120e565b34801561058457600080fd5b506008546001600160a01b0316610301565b3480156105a257600080fd5b506103396105b1366004612a55565b611330565b3480156105c257600080fd5b506102d461138f565b3480156105d757600080fd5b506103396105e63660046127c2565b61139e565b3480156105f757600080fd5b50610370600e5481565b61033961060f366004612a55565b611597565b34801561062057600080fd5b5061033961062f3660046128e0565b611850565b34801561064057600080fd5b5061033961064f366004612860565b61191d565b34801561066057600080fd5b506102d461066f366004612a55565b611980565b34801561068057600080fd5b50610370600b5481565b34801561069657600080fd5b506102aa6106a53660046127e6565b6001600160a01b03918216600090815260076020908152604080832093909416825291909152205460ff1690565b3480156106df57600080fd5b506103396106ee366004612a55565b611a59565b3480156106ff57600080fd5b50601054610301906001600160a01b031681565b34801561071f57600080fd5b5061033961072e3660046127c2565b611b08565b60007fffffffff0000000000000000000000000000000000000000000000000000000082167f80ac58cd0000000000000000000000000000000000000000000000000000000014806107c657507fffffffff0000000000000000000000000000000000000000000000000000000082167f5b5e139f00000000000000000000000000000000000000000000000000000000145b8061081257507f01ffc9a7000000000000000000000000000000000000000000000000000000007fffffffff000000000000000000000000000000000000000000000000000000008316145b92915050565b60606002805461082790612cf2565b80601f016020809104026020016040519081016040528092919081815260200182805461085390612cf2565b80156108a05780601f10610875576101008083540402835291602001916108a0565b820191906000526020600020905b81548152906001019060200180831161088357829003601f168201915b5050505050905090565b60006108b582611be7565b6108eb576040517fcf4700e400000000000000000000000000000000000000000000000000000000815260040160405180910390fd5b506000908152600660205260409020546001600160a01b031690565b6008546001600160a01b031633146109665760405162461bcd60e51b815260206004820181905260248201527f4f776e61626c653a2063616c6c6572206973206e6f7420746865206f776e657260448201526064015b60405180910390fd5b6001600160a01b03821660009081526012602052604090205460ff16151581151514156109d55760405162461bcd60e51b815260206004820152600b60248201527f416c726561647920736574000000000000000000000000000000000000000000604482015260640161095d565b6001600160a01b0391909116600090815260126020526040902080547fffffffffffffffffffffffffffffffffffffffffffffffffffffffffffffff0016911515919091179055565b6000610a2982610dea565b9050806001600160a01b0316836001600160a01b03161415610a77576040517f943f7b8c00000000000000000000000000000000000000000000000000000000815260040160405180910390fd5b336001600160a01b03821614610ac757610a9181336106a5565b610ac7576040517fcfb3b94200000000000000000000000000000000000000000000000000000000815260040160405180910390fd5b610ad2838383611c2b565b505050565b6008546001600160a01b03163314610b315760405162461bcd60e51b815260206004820181905260248201527f4f776e61626c653a2063616c6c6572206973206e6f7420746865206f776e6572604482015260640161095d565b601080547fffffffffffffffffffffffff0000000000000000000000000000000000000000166001600160a01b0392909216919091179055565b610ad2838383611c9f565b6008546000906001600160a01b03163314610bd35760405162461bcd60e51b815260206004820181905260248201527f4f776e61626c653a2063616c6c6572206973206e6f7420746865206f776e6572604482015260640161095d565b506001600160a01b031660009081526012602052604090205460ff1690565b6008546001600160a01b03163314610c4c5760405162461bcd60e51b815260206004820181905260248201527f4f776e61626c653a2063616c6c6572206973206e6f7420746865206f776e6572604482015260640161095d565b6010546040516000916001600160a01b03169047908381818185875af1925050503d8060008114610c99576040519150601f19603f3d011682016040523d82523d6000602084013e610c9e565b606091505b5050905080610cac57600080fd5b50565b610ad28383836040518060200160405280600081525061191d565b6008546001600160a01b03163314610d245760405162461bcd60e51b815260206004820181905260248201527f4f776e61626c653a2063616c6c6572206973206e6f7420746865206f776e6572604482015260640161095d565b60008111610d745760405162461bcd60e51b815260206004820152600d60248201527f43616e2774206265207a65726f00000000000000000000000000000000000000604482015260640161095d565b600c55565b6008546001600160a01b03163314610dd35760405162461bcd60e51b815260206004820181905260248201527f4f776e61626c653a2063616c6c6572206973206e6f7420746865206f776e6572604482015260640161095d565b8051610de690600f906020840190612695565b5050565b6000610df582611f5f565b5192915050565b323314610e4b5760405162461bcd60e51b815260206004820152601560248201527f436f6e747261637473206e6f7420616c6c6f7765640000000000000000000000604482015260640161095d565b3360009081526012602052604090205460ff16610eaa5760405162461bcd60e51b815260206004820152600f60248201527f4e6f74207465616d206d656d6265720000000000000000000000000000000000604482015260640161095d565b610eb48282612c72565b600b5481610ec56001546000540390565b610ecf9190612c46565b1115610f1d5760405162461bcd60e51b815260206004820152601b60248201527f4d41585f535550504c593a20416d6f756e7420746f6f20686967680000000000604482015260640161095d565b60005b83811015610f6a57610f58858583818110610f3d57610f3d612df1565b9050602002016020810190610f5291906127c2565b84612106565b80610f6281612d46565b915050610f20565b5050505050565b600f8054610f7e90612cf2565b80601f0160208091040260200160405190810160405280929190818152602001828054610faa90612cf2565b8015610ff75780601f10610fcc57610100808354040283529160200191610ff7565b820191906000526020600020905b815481529060010190602001808311610fda57829003601f168201915b505050505081565b6008546001600160a01b031633146110595760405162461bcd60e51b815260206004820181905260248201527f4f776e61626c653a2063616c6c6572206973206e6f7420746865206f776e6572604482015260640161095d565b600154600054038110156110af5760405162461bcd60e51b815260206004820152601260248201527f4d617820737570706c7920746f6f206c6f770000000000000000000000000000604482015260640161095d565b600b55565b60006001600160a01b0382166110f6576040517f8f4eb60400000000000000000000000000000000000000000000000000000000815260040160405180910390fd5b506001600160a01b031660009081526005602052604090205467ffffffffffffffff1690565b6008546001600160a01b031633146111765760405162461bcd60e51b815260206004820181905260248201527f4f776e61626c653a2063616c6c6572206973206e6f7420746865206f776e6572604482015260640161095d565b6111806000612120565b565b6008546001600160a01b031633146111dc5760405162461bcd60e51b815260206004820181905260248201527f4f776e61626c653a2063616c6c6572206973206e6f7420746865206f776e6572604482015260640161095d565b600a80547fffffffffffffffffffffffffffffffffffffffffffffffffffffffffffffff00811660ff90911615179055565b32331461125d5760405162461bcd60e51b815260206004820152601560248201527f436f6e747261637473206e6f7420616c6c6f7765640000000000000000000000604482015260640161095d565b3360009081526012602052604090205460ff166112bc5760405162461bcd60e51b815260206004820152600f60248201527f4e6f74207465616d206d656d6265720000000000000000000000000000000000604482015260640161095d565b80600b54816112ce6001546000540390565b6112d89190612c46565b11156113265760405162461bcd60e51b815260206004820152601b60248201527f4d41585f535550504c593a20416d6f756e7420746f6f20686967680000000000604482015260640161095d565b610ad28383612106565b6008546001600160a01b0316331461138a5760405162461bcd60e51b815260206004820181905260248201527f4f776e61626c653a2063616c6c6572206973206e6f7420746865206f776e6572604482015260640161095d565b600e55565b60606003805461082790612cf2565b6008546001600160a01b031633146113f85760405162461bcd60e51b815260206004820181905260248201527f4f776e61626c653a2063616c6c6572206973206e6f7420746865206f776e6572604482015260640161095d565b6040517f70a082310000000000000000000000000000000000000000000000000000000081523060048201526000906001600160a01b038316906370a082319060240160206040518083038186803b15801561145357600080fd5b505afa158015611467573d6000803e3d6000fd5b505050506040513d601f19601f8201168201806040525081019061148b9190612a6e565b90506000826001600160a01b031663a9059cbb6114b06008546001600160a01b031690565b6040517fffffffff0000000000000000000000000000000000000000000000000000000060e084901b1681526001600160a01b03909116600482015260248101859052604401602060405180830381600087803b15801561151057600080fd5b505af1158015611524573d6000803e3d6000fd5b505050506040513d601f19601f8201168201806040525081019061154891906129b5565b905080610ad25760405162461bcd60e51b815260206004820152601e60248201527f546f6b656e20636f756c64206e6f74206265207472616e736665727265640000604482015260640161095d565b3233146115e65760405162461bcd60e51b815260206004820152601560248201527f436f6e747261637473206e6f7420616c6c6f7765640000000000000000000000604482015260640161095d565b600260095414156116395760405162461bcd60e51b815260206004820152601f60248201527f5265656e7472616e637947756172643a207265656e7472616e742063616c6c00604482015260640161095d565b6002600955600e54819061164d8183612c72565b34101561169c5760405162461bcd60e51b815260206004820152601460248201527f50524943453a2056616c756520746f6f206c6f77000000000000000000000000604482015260640161095d565b82600b54816116ae6001546000540390565b6116b89190612c46565b11156117065760405162461bcd60e51b815260206004820152601b60248201527f4d41585f535550504c593a20416d6f756e7420746f6f20686967680000000000604482015260640161095d565b600d548411156117585760405162461bcd60e51b815260206004820152601e60248201527f4241544348204c494d49543a205175616e7469747920746f6f20686967680000604482015260640161095d565b600a5460ff166117aa5760405162461bcd60e51b815260206004820152600f60248201527f436f6e7472616374207061757365640000000000000000000000000000000000604482015260640161095d565b600c54336000908152601160205260409020546117c8908690612c46565b11156118165760405162461bcd60e51b815260206004820152601960248201527f4d41585f4d494e543a20416d6f756e7420746f6f206869676800000000000000604482015260640161095d565b3360009081526011602052604081208054869290611835908490612c46565b9091555061184590503385612106565b505060016009555050565b6001600160a01b038216331415611893576040517fb06307db00000000000000000000000000000000000000000000000000000000815260040160405180910390fd5b3360008181526007602090815260408083206001600160a01b0387168085529083529281902080547fffffffffffffffffffffffffffffffffffffffffffffffffffffffffffffff001686151590811790915590519081529192917f17307eab39ab6107e8899845ad3d59bd9653f200f220920489ca2b5937696c31910160405180910390a35050565b611928848484611c9f565b6001600160a01b0383163b1561197a576119448484848461218a565b61197a576040517fd1a57ed600000000000000000000000000000000000000000000000000000000815260040160405180910390fd5b50505050565b606061198b82611be7565b6119fd5760405162461bcd60e51b815260206004820152602f60248201527f4552433732314d657461646174613a2055524920717565727920666f72206e6f60448201527f6e6578697374656e7420746f6b656e0000000000000000000000000000000000606482015260840161095d565b6000600f8054611a0c90612cf2565b905011611a285760405180602001604052806000815250610812565b600f611a3383612303565b604051602001611a44929190612aed565b60405160208183030381529060405292915050565b6008546001600160a01b03163314611ab35760405162461bcd60e51b815260206004820181905260248201527f4f776e61626c653a2063616c6c6572206973206e6f7420746865206f776e6572604482015260640161095d565b60008111611b035760405162461bcd60e51b815260206004820152601360248201527f4c696d69742063616e2774206265207a65726f00000000000000000000000000604482015260640161095d565b600d55565b6008546001600160a01b03163314611b625760405162461bcd60e51b815260206004820181905260248201527f4f776e61626c653a2063616c6c6572206973206e6f7420746865206f776e6572604482015260640161095d565b6001600160a01b038116611bde5760405162461bcd60e51b815260206004820152602660248201527f4f776e61626c653a206e6577206f776e657220697320746865207a65726f206160448201527f6464726573730000000000000000000000000000000000000000000000000000606482015260840161095d565b610cac81612120565b60008054821080156108125750506000908152600460205260409020547c0100000000000000000000000000000000000000000000000000000000900460ff161590565b60008281526006602052604080822080547fffffffffffffffffffffffff0000000000000000000000000000000000000000166001600160a01b0387811691821790925591518593918516917f8c5be1e5ebec7d5bd14f71427d1e84f3dd0314c0f7b2291e5b200ac8c7c3b92591a4505050565b6000611caa82611f5f565b9050836001600160a01b031681600001516001600160a01b031614611cfb576040517fa114810000000000000000000000000000000000000000000000000000000000815260040160405180910390fd5b6000336001600160a01b0386161480611d195750611d1985336106a5565b80611d34575033611d29846108aa565b6001600160a01b0316145b905080611d6d576040517f59c896be00000000000000000000000000000000000000000000000000000000815260040160405180910390fd5b6001600160a01b038416611dad576040517fea553b3400000000000000000000000000000000000000000000000000000000815260040160405180910390fd5b611db960008487611c2b565b6001600160a01b03858116600090815260056020908152604080832080547fffffffffffffffffffffffffffffffffffffffffffffffff000000000000000080821667ffffffffffffffff9283167fffffffffffffffffffffffffffffffffffffffffffffffffffffffffffffffff01831617909255898616808652838620805493841693831660019081018416949094179055898652600490945282852080547fffffffff00000000000000000000000000000000000000000000000000000000169094177401000000000000000000000000000000000000000042909216919091021783558701808452922080549193909116611f16576000548214611f16578054602086015167ffffffffffffffff1674010000000000000000000000000000000000000000027fffffffff000000000000000000000000000000000000000000000000000000009091166001600160a01b038a16171781555b50505082846001600160a01b0316866001600160a01b03167fddf252ad1be2c89b69c2b068fc378daa952ba7f163c4a11628f55a4df523b3ef60405160405180910390a4610f6a565b6040805160608101825260008082526020820181905291810191909152816000548110156120d457600081815260046020908152604091829020825160608101845290546001600160a01b038116825274010000000000000000000000000000000000000000810467ffffffffffffffff16928201929092527c010000000000000000000000000000000000000000000000000000000090910460ff161515918101829052906120d25780516001600160a01b031615612020579392505050565b507fffffffffffffffffffffffffffffffffffffffffffffffffffffffffffffffff01600081815260046020908152604091829020825160608101845290546001600160a01b03811680835274010000000000000000000000000000000000000000820467ffffffffffffffff16938301939093527c0100000000000000000000000000000000000000000000000000000000900460ff16151592810192909252156120cd579392505050565b612020565b505b6040517fdf2d9b4200000000000000000000000000000000000000000000000000000000815260040160405180910390fd5b610de6828260405180602001604052806000815250612435565b600880546001600160a01b038381167fffffffffffffffffffffffff0000000000000000000000000000000000000000831681179093556040519116919082907f8be0079c531659141344cd1fd0a4f28419497f9722a3daafe3b4186f6b6457e090600090a35050565b6040517f150b7a020000000000000000000000000000000000000000000000000000000081526000906001600160a01b0385169063150b7a02906121d8903390899088908890600401612bf7565b602060405180830381600087803b1580156121f257600080fd5b505af1925050508015612240575060408051601f3d9081017fffffffffffffffffffffffffffffffffffffffffffffffffffffffffffffffe016820190925261223d918101906129ef565b60015b6122b4573d80801561226e576040519150601f19603f3d011682016040523d82523d6000602084013e612273565b606091505b5080516122ac576040517fd1a57ed600000000000000000000000000000000000000000000000000000000815260040160405180910390fd5b805181602001fd5b7fffffffff00000000000000000000000000000000000000000000000000000000167f150b7a02000000000000000000000000000000000000000000000000000000001490505b949350505050565b60608161234357505060408051808201909152600181527f3000000000000000000000000000000000000000000000000000000000000000602082015290565b8160005b811561236d578061235781612d46565b91506123669050600a83612c5e565b9150612347565b60008167ffffffffffffffff81111561238857612388612e20565b6040519080825280601f01601f1916602001820160405280156123b2576020820181803683370190505b5090505b84156122fb576123c7600183612caf565b91506123d4600a86612d7f565b6123df906030612c46565b60f81b8183815181106123f4576123f4612df1565b60200101907effffffffffffffffffffffffffffffffffffffffffffffffffffffffffffff1916908160001a90535061242e600a86612c5e565b94506123b6565b6000546001600160a01b038416612478576040517f2e07630000000000000000000000000000000000000000000000000000000000815260040160405180910390fd5b826124af576040517fb562e8dd00000000000000000000000000000000000000000000000000000000815260040160405180910390fd5b6001600160a01b038416600081815260056020908152604080832080547fffffffffffffffffffffffffffffffff00000000000000000000000000000000811667ffffffffffffffff8083168b018116918217680100000000000000007fffffffffffffffffffffffffffffffffffffffffffffffff000000000000000090941690921783900481168b01811690920217909155858452600490925290912080547fffffffff000000000000000000000000000000000000000000000000000000001683177401000000000000000000000000000000000000000042909316929092029190911790558190818501903b15612640575b60405182906001600160a01b038816906000907fddf252ad1be2c89b69c2b068fc378daa952ba7f163c4a11628f55a4df523b3ef908290a46125f0600087848060010195508761218a565b612626576040517fd1a57ed600000000000000000000000000000000000000000000000000000000815260040160405180910390fd5b8082106125a557826000541461263b57600080fd5b612685565b5b6040516001830192906001600160a01b038816906000907fddf252ad1be2c89b69c2b068fc378daa952ba7f163c4a11628f55a4df523b3ef908290a4808210612641575b50600090815561197a9085838684565b8280546126a190612cf2565b90600052602060002090601f0160209004810192826126c35760008555612709565b82601f106126dc57805160ff1916838001178555612709565b82800160010185558215612709579182015b828111156127095782518255916020019190600101906126ee565b50612715929150612719565b5090565b5b80821115612715576000815560010161271a565b600067ffffffffffffffff8084111561274957612749612e20565b604051601f85017fffffffffffffffffffffffffffffffffffffffffffffffffffffffffffffffe0908116603f0116810190828211818310171561278f5761278f612e20565b816040528093508581528686860111156127a857600080fd5b858560208301376000602087830101525050509392505050565b6000602082840312156127d457600080fd5b81356127df81612e4f565b9392505050565b600080604083850312156127f957600080fd5b823561280481612e4f565b9150602083013561281481612e4f565b809150509250929050565b60008060006060848603121561283457600080fd5b833561283f81612e4f565b9250602084013561284f81612e4f565b929592945050506040919091013590565b6000806000806080858703121561287657600080fd5b843561288181612e4f565b9350602085013561289181612e4f565b925060408501359150606085013567ffffffffffffffff8111156128b457600080fd5b8501601f810187136128c557600080fd5b6128d48782356020840161272e565b91505092959194509250565b600080604083850312156128f357600080fd5b82356128fe81612e4f565b9150602083013561281481612e64565b6000806040838503121561292157600080fd5b823561292c81612e4f565b946020939093013593505050565b60008060006040848603121561294f57600080fd5b833567ffffffffffffffff8082111561296757600080fd5b818601915086601f83011261297b57600080fd5b81358181111561298a57600080fd5b8760208260051b850101111561299f57600080fd5b6020928301989097509590910135949350505050565b6000602082840312156129c757600080fd5b81516127df81612e64565b6000602082840312156129e457600080fd5b81356127df81612e72565b600060208284031215612a0157600080fd5b81516127df81612e72565b600060208284031215612a1e57600080fd5b813567ffffffffffffffff811115612a3557600080fd5b8201601f81018413612a4657600080fd5b6122fb8482356020840161272e565b600060208284031215612a6757600080fd5b5035919050565b600060208284031215612a8057600080fd5b5051919050565b60008151808452612a9f816020860160208601612cc6565b601f017fffffffffffffffffffffffffffffffffffffffffffffffffffffffffffffffe0169290920160200192915050565b60008151612ae3818560208601612cc6565b9290920192915050565b600080845481600182811c915080831680612b0957607f831692505b6020808410821415612b42577f4e487b710000000000000000000000000000000000000000000000000000000086526022600452602486fd5b818015612b565760018114612b8557612bb2565b7fffffffffffffffffffffffffffffffffffffffffffffffffffffffffffffff00861689528489019650612bb2565b60008b81526020902060005b86811015612baa5781548b820152908501908301612b91565b505084890196505b505050505050612bee612bc58286612ad1565b7f2e6a736f6e000000000000000000000000000000000000000000000000000000815260050190565b95945050505050565b60006001600160a01b03808716835280861660208401525083604083015260806060830152612c296080830184612a87565b9695505050505050565b6020815260006127df6020830184612a87565b60008219821115612c5957612c59612d93565b500190565b600082612c6d57612c6d612dc2565b500490565b6000817fffffffffffffffffffffffffffffffffffffffffffffffffffffffffffffffff0483118215151615612caa57612caa612d93565b500290565b600082821015612cc157612cc1612d93565b500390565b60005b83811015612ce1578181015183820152602001612cc9565b8381111561197a5750506000910152565b600181811c90821680612d0657607f821691505b60208210811415612d40577f4e487b7100000000000000000000000000000000000000000000000000000000600052602260045260246000fd5b50919050565b60007fffffffffffffffffffffffffffffffffffffffffffffffffffffffffffffffff821415612d7857612d78612d93565b5060010190565b600082612d8e57612d8e612dc2565b500690565b7f4e487b7100000000000000000000000000000000000000000000000000000000600052601160045260246000fd5b7f4e487b7100000000000000000000000000000000000000000000000000000000600052601260045260246000fd5b7f4e487b7100000000000000000000000000000000000000000000000000000000600052603260045260246000fd5b7f4e487b7100000000000000000000000000000000000000000000000000000000600052604160045260246000fd5b6001600160a01b0381168114610cac57600080fd5b8015158114610cac57600080fd5b7fffffffff0000000000000000000000000000000000000000000000000000000081168114610cac57600080fdfea264697066735822122031de0e8d52f6a19afbd6d41c6699d82f9cc8abb644375e1dcf678d913064693f64736f6c63430008070033",
    "linkReferences": {},
    "deployedLinkReferences": {}
}